:020000040800F2
:10000000B0750120791C0008990500089B050008BF
:100010009D0500089F050008A105000800000000DC
:10002000000000000000000000000000A305000820
:10003000A505000800000000A7050008A9050008A4
:10004000931C0008931C0008931C0008931C0008D4
:10005000931C0008931C0008931C0008931C0008C4
:10006000931C0008931C0008931C0008931C0008B4
:10007000931C0008931C0008F50F0008CF0F000820
:10008000931C0008931C0008931C0008931C000894
:10009000931C0008931C0008931C0008931C000884
:1000A000931C0008931C0008931C0008931C000874
:1000B000931C00089D090008B1000108931C00086A
:1000C000931C0008931C0008931C0008931C000854
:1000D000931C000819440008931C000893EB0008C7
:1000E000931C0008931C0008931C0008931C000834
:1000F000931C0008931C0008931C0008931C000824
:10010000931C0008931C0008931C0008931C000813
:10011000931C0008931C0008931C0008931C000803
:10012000931C0008931C0008931C0008931C0008F3
:10013000931C00082F0C0008931C0008931C000857
:10014000931C0008931C0008931C0008931C0008D3
:10015000931C0008931C0008931C0008931C0008C3
:10016000931C0008931C0008931C0008931C0008B3
:10017000931C0008931C0008931C0008931C0008A3
:10018000931C0008931C000800F002F800F07AF8B5
:100190000AA090E8000C82448344AAF10107DA45E2
:1001A00001D100F06FF8AFF2090EBAE80F0013F0BA
:1001B000010F18BFFB1A43F0010318475C3401001C
:1001C0007C34010010F8013B0A4413F0030408BF1B
:1001D00010F8014B1D1108BF10F8015B641E05D01B
:1001E00010F8016B641E01F8016BF9D1002D15D0D8
:1001F00010F8014B03F00C030C2BA1EB04040ABF15
:1002000010F8013BA4EB8314A4EB032405F10103D4
:1002100014F8016B5B1E01F8016BF9D5914238BFF0
:1002200010F8013BD1D3704700230024002500269D
:10023000103A28BF78C1FBD8520728BF30C148BF49
:100240000B607047642910F09184752910F08E843A
:10025000782910F0C784632911F00580732911F003
:100260000A80002070471FB512F0FCFD11F0D6F88F
:1002700004000020002112F049F8401C60601FBDFE
:1002800010B510BD11F0A5F81146FFF7ECFF00F016
:1002900009F811F0D5F803B4FFF7F2FF03BC04F03E
:1002A0005DF80000A82003F0FFFF4FF4A06001F00C
:1002B00003FD00200BF066FA02200BF063FA00F059
:1002C00027FD04F0E6F80BF02CFC4FF4E13004F0CD
:1002D0004DF84FF496600EF0F9FB00F0F9FA00F0DB
:1002E00023FA01F073F9532140F2E73000F02AFBC2
:1002F00001F0B2F901F09CF80EF074FB0DF0B9FAC0
:100300000BF069FC0DF0B7FC0CF04DFA0DF064FA3F
:1003100001F032FB01F0DBFA73490120C1F8A802B9
:1003200001F058FCDFF8C4810025D8F8000020F85F
:10033000945F8570C57085808571A8200FF0F4FEEC
:100340006BA010F0A1FB04F0EFF8724C38B172A072
:1003500010F09AFB207820F00400207006E020784E
:1003600040F00400207073A010F08EFB0BF034FE00
:100370007748D0F80012207861F3410020700EF029
:10038000FFF974A010F080FBA246DFF8E491794CED
:10039000794E41F2707B9AF800005746410724D508
:1003A000010704D440F0080038700BF051FC04F051
:1003B0001BF93878C10618D440F010003870316845
:1003C00041F2C432134620680C310BF020FCD8F8FF
:1003D0000000B0F8942060680AB1134601E05A4664
:1003E0005B4631680C310BF012FC644F386890F8B2
:1003F000201090F8212091420DD000EB8100406A3E
:1004000054F820000BF04AFB386810F8201F491CF4
:1004100021F0080101705A4F386810F8201F407809
:10042000814208D00BF096FA386810F8201F491C5A
:1004300021F00801017000F093F900F0CCF9514B64
:10044000188841040FD501040DD4B9F80010491CD7
:1004500089B2A9F800100A2907D940F40040188091
:10046000A9F8005001E0A9F802504749484F086830
:10047000401C086045480168491C01603878000646
:1004800001D50BF069FC0EF060F93888410510D5F4
:1004900020F480603880D8F80000B0F89430B0F8CC
:1004A000600082B2606803B95B4631680C310BF0C2
:1004B000AEFB0DF082FA01F0D4F80DF0A7F901F0CF
:1004C000D3F90EF06EFC0EF088FB0EF057FC01F035
:1004D00099FB30480068417805297FF65CAF45708C
:1004E0000BF0AAFC57E7000000004242E0010020A8
:1004F00055534D41525420446562756720537973BA
:1005000074656D20496E697469616C697A65640D02
:100510000A000000B40100204C574950E5889DE5D1
:10052000A78BE58C96E5A4B1E8B4A5EFBC810D0AD4
:10053000000000004C574950E5889DE5A78BE58CED
:1005400096E68890E58A9FEFBC810D0A00000000C6
:1005500000004342E5889DE5A78BE58C96E5B7B2A0
:10056000E5AE8CE68890EFBC815C720A000000006A
:1005700000000020E4630120B4000020C801002036
:10058000C4010020E4000020D8010020DC0100208C
:10059000EA010020200000207047FEE7FEE7FEE7AA
:1005A000FEE7704770477047704700000CB50022A7
:1005B000544900920192086840F4803008604FF47A
:1005C000A043086800F4003001900098401C00909F
:1005D000019810B900989842F3D10868800334D587
:1005E0000120019047484030026842F0805202608A
:1005F0004548026842F440420260424808300268BE
:100600000260026842F400420260026842F4A052B2
:100610000260031F3D4A1A600A6842F080720A6055
:100620000A689201FCD53A4940F205720A600168F5
:1006300021F003010160016841F0020101600168DD
:10064000C1F381010229FAD10CBD01920CBD3148E0
:1006500010B5016841F4700101602A48016841F059
:1006600001010160274A00210832116002682A4B0B
:100670001A400260031D294A1A60026822F480228F
:10068000026020480C300160FFF790FF21494FF0D5
:1006900000608039086010BD70B51A4D08352868B3
:1006A0001F4B204910F00C0004D05E10042803D02A
:1006B000082803D00B601BE00E6019E0114A121DE0
:1006C0001068C0F38054106800F03F0014B1B6FB0E
:1006D000F0F001E0B3FBF0F013681268C3F3881385
:1006E0005843C2F30142521C5200B0FBF2F00860C2
:1006F00028680C4AC0F30310121D105C0A68C2403F
:100700000A6070BD00380240007000400854400785
:10071000003C024088ED00E0FFFFF6FE10300024B0
:100720000024F400040000207CB50121602001F0C9
:100730008AFD4FF40040002500908DF804500124FC
:100740008DF8074069464E4801F07AFB8DF8045059
:1007500000948DF8074069464A4801F071FB7CBD62
:1007600030B4494A494D0123117849B14848002421
:100770000129006809D0022914D0147030BC7047D8
:10078000D5F83C02C043507023E0D5F83C125378B2
:100790009942F3D0D5F83C12517084710220107048
:1007A0009470EBE781796429E8D3D5F83C5251780D
:1007B0008D420ED101290CD084719078401CC0B2BA
:1007C00090703228DAD31370002130BC0A200DF06B
:1007D00058BA1370D2E72DE9F0412B492E4C2D4D1C
:1007E000C8782278012748B1294B002601281B68C8
:1007F00010D002281AD0CE70BDE8F081C2F34000BC
:10080000D5F800229042F7D0D5F80002C043087115
:10081000CF70F1E7D5F800020A799042ECD0D5F814
:10082000000208711E720220C870E5E7187A642879
:10083000E2D3CF70D5F8003208798342DCD1D5F805
:100840000012012861F34102227004D0BDE8F0419A
:1008500012A010F019B95007CED40BF0BCF903F078
:1008600063FE08B110A004E0207840F0040020707E
:1008700012A010F009F9BDE8F0410DF0FCB900003C
:10088000001402400018024018000020008042427C
:100890002000002000004342B40100206E65742057
:1008A0003D300D0A000000004C574950B3F5CABC5A
:1008B000BBAFCAA7B0DCA3A10D0A00004C5749503A
:1008C000B3F5CABCBBAFB3C9B9A6A3A10D0A00005A
:1008D0007CB50121202001F0B6FC01208DF8040038
:1008E00000208DF806008DF807000320134D4FF40B
:1008F000C0648DF8050000946946284601F0A0FA0E
:100900002146284601F001FB7CBD10B500230C4AAE
:10091000012438B1012804D169B1012901D1C2F8FB
:10092000A83210BD21B10129FBD1C2F8A43210BDFB
:10093000C2F8A44210BDC2F8A84210BD0014024083
:10094000008042427FB50D4604460121022001F09D
:1009500098FC00210194ADF80050454CADF8021010
:10096000ADF808106946204601F010FE012211463C
:10097000204602F094F90121204601F07FFE1D205F
:100980008DF80C0001208DF80D0003218DF80E105C
:100990008DF80F0003A801F094F97FBD10B5344C19
:1009A0000121204602F08FF901285FD13148002251
:1009B0000168491C0160304801680879401C0871D1
:1009C0004879401C48718879401C8871C879401C5E
:1009D000C871087A401C08724889401C4881087C0C
:1009E000401C0874487C401C48740878401CC0B205
:1009F0000870642815D10A704888401C48804878DF
:100A0000401C4870487A401C4872087B401C0873A0
:100A1000487B401C4873887B401C8873C87B401C03
:100A2000C8731648016891F82700C8B1888CB8B11E
:100A3000401E0004000C888412D191F8200091F827
:100A40002130984208D2401C81F82000488C8884CC
:100A50000B490120088003E081F8272081F820203D
:100A60002046BDE81040012102F039B910BD000058
:100A700000040040F40000202000002010020020AC
:100A80000C02002030B5B1B0002401214FF06060AD
:100A90002F9401F0D8FB02F085FB02F099FFAF4DD7
:100AA00007E02F98401C2F90A84202D1002031B0BF
:100AB00030BD02F093FF0128F3D0684602F07EFBC0
:100AC000012000904002CDE90A0400040794149428
:100AD0000111119423911594CDE920400421CDE911
:100AE0002810259440122A90269480010E942B9071
:100AF000139440122C9040002E900021684602F082
:100B0000EFFBC4B2012C03D10121954802F078FF1C
:100B10002046CCE7FEB501214D2001F094FB0121D8
:100B2000880301F0B8FB012001F08BFC862003252F
:100B300000908DF8055002208DF804000024894EA5
:100B40008DF806408DF807406946304601F078F987
:100B50000B220121304601F0E7F90B220221304639
:100B600001F0E2F90B220721304601F0DDF93220D5
:100B70007D4E00906946304601F062F90B2201215A
:100B8000304601F0D1F90B220421304601F0CCF9B6
:100B90000B220521304601F0C7F94FF4D040734EC7
:100BA00000906946304601F04BF90B221146304661
:100BB00001F0BAF90B220D21304601F0B5F90B22F4
:100BC0000E21304601F0B0F98DF8055001250820BE
:100BD0008DF8045000908DF806408DF80740694666
:100BE000634801F02DF9634EC6F88C42322006F5B9
:100BF000237603F09AFB35603D208DF808008DF8D0
:100C000009408DF80A408DF80B5002A801F059F800
:100C1000FFF738FF08B10020FEBD0120FEBD10B572
:100C20001F21002002F034FBC0F3820010BD10B57C
:100C3000514C01E003F0D4FC206802F0AFFE002824
:100C4000F8D1402002F0EDFEBDE810404FF48030B6
:100C500002F0E7BE70B5484C00231A4621680D68C3
:100C6000002D0BDA454916464B691B0602D5802339
:100C70004B618E6002604260826070BD0D682D0421
:100C80000AD40D68ED0507D50D68AD0504D50A68D1
:100C9000C2F30D438A681B1FCD6825600360C0E95D
:100CA000012170BD364A11680B68002B01DA002063
:100CB0007047C0F30C004860086840F0405008607E
:100CC000086840F0004008602C4843695B0703D582
:100CD0000423436100234360C8681060012070470B
:100CE000274800688068704710B5264C00202168AE
:100CF0000AF0E7FD002061680AF0E3FD0020A1682A
:100D00000AF0DFFDE168BDE8104000200AF0D9BD1F
:100D100070B5A02100200AF0DDFD1A4CA021206052
:100D200000200AF0D7FD41F6C45560602946002036
:100D30000AF0D0FDA060294600200AF0CBFDE0605B
:100D4000216831B1616821B1A16811B108B10020F9
:100D500070BDFFF7C9FF012070BD0000FFFF040058
:100D6000400001000000024000080240001802405C
:100D7000000C024000804142D80000200090024058
:100D8000D4000020240000202DE9FF410C46012161
:100D900005468F031E469046384601F072FA01213F
:100DA000384601F0A0FA0021384601F09CFAADF86F
:100DB00004600020ADF80040ADF806000220A04C11
:100DC0000290ADF80250ADF80C806946204603F061
:100DD00027F901220221204603F019FA01212046B9
:100DE00003F0A0F9BDE8FF811FB581F48071ADF873
:100DF0000010ADF80200ADF804300020ADF8060098
:100E00000220904C0290ADF80C206946204603F079
:100E1000C6F901221146204603F0F9F901212046C6
:100E200003F080F91FBD70B500240A21B0FBF1F07A
:100E3000854D04EB840135F81110814203D0641C08
:100E4000E4B20B2CF5D3002001F01DF90B2C1AD0C5
:100E500004EB840005EB4004A188608801F00CF9E4
:100E60007A48016841F08061016001680901FCD5A0
:100E7000E088217A40EA0120714940F40070203175
:100E80000880002070BD012070BD2DE9F04188462A
:100E90000646012190B01546480501F0D4F96C4F83
:100EA000384602F0DBFE384602F0DDFF0028FAD1BA
:100EB0006849384603F041F8614800240C30CDE918
:100EC000004002964020CDE903050001CDE9054030
:100ED0004000079080000890401109904002CDE941
:100EE0000A040C940D94694638460E9402F03EFFB5
:100EF00000224146384602F095FF0121384602F0B3
:100F00009CFF01221021384602F0DEFF0F208DF8F1
:100F10003C008DF83D408DF83E4001208DF83F00AB
:100F20000FA800F0CEFE10B0BDE8F081F0B50F467E
:100F30000446012191B01646480501F084F9444D5C
:100F4000183D284602F08AFE284602F08CFF002851
:100F5000FAD14149284602F0F0FF4FF0C0600090FE
:100F6000384869460C30CDE901040024CDE9034638
:100F70000015CDE905404000079080000890401121
:100F800009900002CDE90A040C940D9428460E94B1
:100F900002F0ECFE00223946284602F043FF012110
:100FA000284602F04AFF01221021284602F08CFF59
:100FB0000E208DF83C008DF83D4001208DF83E005C
:100FC0008DF83F000FA800F07CFE11B0F0BD70B5A9
:100FD000224C1F4D2146284602F08CFF012808D1E3
:100FE0002146284602F0A9FF1D480068BDE8704070
:100FF000004770BD70B5164D1A4C183D2146284665
:1010000002F078FF012808D12146284602F095FF1A
:1010100013484068BDE87040004770BD01210C488E
:1010200002F0DDBE00210A4802F0D9BE08480121C5
:10103000183802F0D4BE06480021183802F0CFBE9E
:1010400000380040003400405E2F010800380240A4
:10105000706002403DF000A000F0409F2080002022
:1010600034000020008000181CB50121022001F08E
:10107000EAF84FF44070012400908DF804400020FD
:101080008DF8060003208DF805008DF807406946AD
:101090007C4800F0D5FE7C48C0F8A042C0F8A442CD
:1010A0001CBD70B57748016821F4402101600168DA
:1010B00041F480210160744C0120C4F8A402C4F8FA
:1010C000A002042004F5287403F001F900256560EE
:1010D000042003F0FCF8256070BD6A4810B5016873
:1010E00021F440210160016841F480210160664CD7
:1010F0000020C4F8A002C4F8A402042004F5287457
:1011000003F0E5F8012020606060BDE81040042095
:1011100003F0DDB870B55B480024016821F440217C
:10112000016001680160584D0126C5F8A46230468F
:1011300003F0CDF8C5F8A062012003F0C8F807E07D
:10114000641CE4B2FA2C03D9FFF7C7FF012070BD7D
:10115000D5F824020028F3D1C5F8A00270BD70B5FF
:10116000494C0025C4F8A0524648016821F44021AA
:101170000160016841F480210160C4F8A45202209A
:1011800004F5287403F0A3F801202060022003F086
:101190009EF8256070BD70B53B4C0026C4F8A06277
:1011A0003848016821F440210160016841F4802140
:1011B00001600125C4F8A452022004F5287403F04C
:1011C00086F82560022003F082F8266070BD2DE9C4
:1011D000F04105462B48016821F440210160016877
:1011E00041F480210160284E0027C6F8A0723C46D9
:1011F0004FF00108E809C6F8A4026806050E0220AF
:1012000003F065F8C6F8A082022003F060F8C6F883
:10121000A072022003F05BF8641CE4B2082CE9D34E
:10122000BDE8F0812DE9F0478146164800240168A9
:1012300021F44021016001680160134E25462746D4
:101240004FF00108C6F8A072022003F040F8C6F87B
:10125000A0826006040ED6F8240208B1641CE4B231
:10126000012003F034F86D1CEDB2082DEAD3B9F17A
:10127000000F04D0FFF773FF2046BDE8F087FFF7AB
:101280008AFFF9E7000402400080404270B50C4636
:101290000546FFF706FF3420FFF799FFFFF73AFFF7
:1012A00008B1012070BDC4F3002040EA4500C0B27F
:1012B000FFF78DFFFFF72EFF08B1022070BDE0B2EF
:1012C000FFF785FFFFF726FF08B1032070BDFFF78A
:1012D00004FFBB4820F81540002070BD10B510F089
:1012E0003F0400D1402421463620FFF7CFFF44F4CD
:1012F0008071BDE810403720C8E710B50A4610F0ED
:101300003F0102F03F0400D1402104B940243420C1
:10131000FFF7BCFF44F48071BDE810403520B5E70D
:1013200010F03F0003D040F480712D20AEE74FF461
:10133000A071FAE710B5002400B1012409B144F00E
:10134000160421463220FFF7A1FF2146BDE81040D8
:1013500033209BE79A4931F81000704770B5984DDB
:1013600000F0070435F85E0F20F0070121432F201D
:10137000FFF78CFF688820F007012143BDE870402B
:10138000302083E770B58E4D00F0070435F85E0F0E
:1013900020F0700040EA04112F20FFF777FF6888E3
:1013A00020F0700040EA0411BDE8704030206DE785
:1013B0002DE9F041824D04001646A8880F4602D060
:1013C00040F00C0101E020F00C010220FFF75EFF6D
:1013D000B5F8580014B140F0330101E020F03301BA
:1013E0002C20FFF753FF0FB1012000E00020FFF792
:1013F000C9FF0EB1072000E00020BDE8F041ADE7D5
:1014000070B56F4D0C46E98810B141F0030101E061
:1014100021F003010320FFF739FFA88814B140F041
:10142000030101E020F00301BDE8704002202DE738
:101430002DE9FC410121062000F005FF02258DF871
:10144000045000264FF440508DF806600327DFF863
:10145000748100908DF8057001248DF8074069466D
:10146000404600F0EDFC8DF804508DF806608DF8D4
:1014700005708DF807404C20534C0090694620467B
:1014800000F0DEFC05220C21404600F04DFD052257
:101490000D21404600F048FD05220321204600F0C2
:1014A00043FD05220621204600F03EFD06220221D2
:1014B000204600F039FDFFF7D7FD00210846FFF771
:1014C000E5FE10B10120BDE8FC8140F21F110120B2
:1014D000FFF7DCFE4FF4D8710220FFF7D7FE6F2133
:1014E0000320FFF7D3FE19210420FFF7CFFE3E2192
:1014F0000520FFF7CBFE00210620FFF7C7FE0A21DB
:101500000720FFF7C3FE08210A20FFF7BFFE0821CE
:101510000E20FFF7BBFE18212420FFF7B7FE102195
:101520002B20FFF7B3FE00212C20FFF7AFFE4FF476
:10153000807421462F20FFF7A9FE21463020FFF7B7
:10154000A5FE02213120FFF7A1FE01213220FFF785
:101550009DFE01213320FFF799FE28213420FFF75B
:1015600095FE4FF494713520FFF790FE322136201E
:10157000FFF78CFE4FF499713720FFF787FE0121AA
:101580000846FFF73DFF002211460120FFF710FF3C
:1015900000210120FFF7CEFE1E20FFF7C1FE1E2115
:1015A0000846FFF7AAFE2820FFF798FE00208AE7EA
:1015B000800701F00301C00E40EA4111042065E6F6
:1015C0003C0000200004024000080240FFF74CBD30
:1015D00070B515460C460646FFF763FDA020FFF7E1
:1015E000F6FDFFF797FD3046FFF7F1FDFFF792FD9F
:1015F000FFF757FDA120FFF7EAFDFFF78BFD04E0A1
:101600000120FFF70FFE04F8010B6D1EEDB2F7D2BB
:10161000FFF7C1FDFFF761FD002070BD70B50D46FD
:101620000446FFF73EFDA020FFF7D1FDFFF772FD56
:101630002046FFF7CCFDFFF76DFD00242878FFF76B
:10164000C6FDFFF767FD641CE4B26D1C082CF5D3E2
:10165000BDE87040FFF741BD1148027841680020A5
:10166000B6E770B50F4A1178880712D50E480068A2
:1016700043790A2B0DD30A4C0023437125786078F7
:10168000854207D361680144FFF7C8FF60780830DE
:10169000607070BD21F002001070637070BD0000BA
:1016A000B0000020FC010020200000202DE9F041C6
:1016B0008F48904C904F03689048A61CB3F83AC0EE
:1016C000626800253178006894451AD9CA0716D196
:1016D000CA060ED5027B1E2A11D921F01E0141F047
:1016E000010131703D70057345738573C57384A026
:1016F0002FE021F0E00141F0100131700573BDE8E9
:10170000F081B3F838C0944501D2457355E0B3F881
:1017100034C0944528D2B3F836C0944524D921F07A
:101720004001857331704A0702D43A78002AE6D026
:101730008A0612D5427B23789A42E0D921F02D0106
:1017400041F0020131703D70057345738573C573B7
:101750006FA0BDE8F0410FF097B921F0D00141F042
:10176000200131704573CAE7B3F830C09445C6D242
:101770005B8E9342C3D921F02001457331704A0733
:10178000BDD44A0614D5827B0C2AB8D321F04B0174
:1017900041F0040131703D70057345738573C57365
:1017A0005EA00FF071F90CF0B5FF0C202070A6E7D9
:1017B00021F0B00141F04001317085739FE770471F
:1017C00010B5044672B600F0F6F8C42000F09EF999
:1017D00000F030F910B154A00FF056F9204600F097
:1017E00095F900F027F910B152A00FF04DF900F073
:1017F000E2F8C52000F08AF900F01CF910B150A001
:101800000FF042F9002000F0B3F9044600F0F1F8BF
:1018100062B6204610BD10B50320FFF7D1FF044685
:101820000220FFF7CDFF04EB002080B240F231111F
:10183000484300EE100AF8EE400A9FED441A80EE8D
:10184000810ADFED430A2B4C20EE200ABDEEC00AD0
:1018500010EE100A80B260600420FFF7B1FF6178DB
:10186000884200D0607010BD244810B500684189DE
:10187000C82906D300214181FFF7CDFFBDE8104004
:1018800014E710BD70B50D46044672B600F093F82B
:10189000C42000F03BF900F0CDF810B12DA00FF0FE
:1018A000F3F8E0B200F032F900F0C4F810B12CA067
:1018B0000FF0EAF8284600F029F900F0BBF810B163
:1018C0002AA00FF0E1F800F094F862B670BD10B5F0
:1018D00000210A20FFF7D6FF642002F026FD05490B
:1018E000891C087820F00E0040F00100087010BD3F
:1018F000B4000020B80000204C0C00202000002084
:10190000646973636F6E6E6563740D0A0000000096
:101910006F6E686F6F6B0D0A000000006F6666687F
:101920006F6F6B0D0A000000526561646F75743152
:101930000D0A0000526561646F7574320D0A000073
:10194000526561646F7574330D0A00000024744998
:101950000000C84257726974654F7574310D0A00F2
:1019600057726974654F7574320D0A005772697445
:10197000654F7574330D0A001CB50121202000F05D
:1019800062FC012003218DF8040000228DF806205E
:101990008DF805108E4C00918DF8070069462046A1
:1019A00000F04EFA0221204600F0AFFA0121204655
:1019B00000F0ABFA1CBD10B5854C0121204600F0AB
:1019C000A4FA0221204600F0A0FA206820F00300CB
:1019D0002060206840F001002060042002F077FCC5
:1019E0000121204600F093FABDE81040042002F0E7
:1019F0006EBC10B5764C206820F003002060206893
:101A000040F0010020600221204600F07EFA042010
:101A100002F05DFC0121204600F079FA042002F07A
:101A200056FC0121204600F070FABDE81040042069
:101A300002F04DBC70B5664D00242846296821F09F
:101A40000301296029682960022100F05EFA012063
:101A500002F03DFC07E0641CE4B2FA2C03D9FFF766
:101A6000C8FF012070BD0121284600F03AFA002885
:101A7000F1D10221284600F04AFA002070BD10B5CD
:101A8000534C0221204600F042FA206820F0030067
:101A90002060206840F0010020600121204600F015
:101AA00036FA022002F013FC0221204600F02DFA43
:101AB000022002F00CFC0221204600F028FABDE8CA
:101AC0001040022002F003BC10B5414C0221204618
:101AD00000F01DFA206820F003002060206840F02C
:101AE000010020600121204600F00FFA022002F0E0
:101AF000EEFB0221204600F008FA022002F0E7FB8C
:101B00002046BDE81040022100F001BA70B5304E09
:101B100005463046316821F003013160316841F0FB
:101B200001013160022100F0F2F9002428064FF093
:101B30000101304602D500F0E8F901E000F0E7F9D4
:101B40006806050E052002F0C2FB0221304600F0B7
:101B5000DCF9052002F0BBFB0221304600F0D7F98A
:101B6000052002F0B4FB641CE4B2082CDED370BD87
:101B70002DE9F041164E07460024306820F003009E
:101B800030603068306025460221304600F0BFF9F1
:101B9000052002F09CFB0221304600F0B6F96006F9
:101BA000040E0121304600F09CF908B1641CE4B237
:101BB000052002F08CFB6D1CEDB2082DE4D327B19B
:101BC000FFF75DFF2046BDE8F081FFF77DFFF9E7F5
:101BD000001402401CB50121102000F034FB01214B
:101BE0008DF8041000208DF806008DF807008A0299
:101BF00003208DF8050000926946184800F020F98E
:101C00001CBD7047164810B5D0F83C42154801235A
:101C1000002215490068012C09D04274007C052877
:101C200004D94878002801D14B700A7010BD0274A5
:101C3000407C0528FAD908780028F7D107480B70AE
:101C40004A700069C0F3C324214608A00EF01CFFAF
:101C50002046BDE810400AF0FDBE7047001002406B
:101C60000000424220000020C000002044544D46A5
:101C70003D25640D0A0000000948804709480047D7
:101C8000FEE7FEE7FEE7FEE7FEE7FEE7FEE7FEE72C
:101C9000FEE7FEE704480549054A064B7047000089
:101CA0004F06000889010008B06F0120B0750120BF
:101CB000B0710120B071012028490843284908600B
:101CC000704730B50F23C27801780125FAB1244A54
:101CD000126801F1E02102F4E062C2F5E062C2F3B1
:101CE0000722C2F10404D3404278A24084781C4009
:101CF0001443220181F80024007800F01F018D4078
:101D00004009800000F1E020C0F8005130BD01F032
:101D10001F0085404809800000F1E020C0F8805194
:101D200030BD104A114001430D48001F016070474B
:101D30000B4A121D0029116801D0014300E08143C4
:101D4000116070474FF0E0210428086903D020F0AB
:101D500004000861704740F00400FAE70000FA054B
:101D60000CED00E080FFFF1F774910B5884206D1D7
:101D70000121084600F099FA002101205BE0734937
:101D8000884206D10121022000F08FFA00210220B2
:101D900051E06F49884206D10121042000F085FA04
:101DA0000021042047E06B49884206D10121082028
:101DB00000F07BFA002108203DE06749884206D107
:101DC0000121102000F071FA0021102033E0634956
:101DD000884206D10121202000F067FA002120204E
:101DE00029E05F49884206D10121402000F05DFAD8
:101DF000002140201FE05B49884206D1012180205C
:101E000000F053FA0021802015E05749884202D1A2
:101E1000012184150AE05549884202D10121441567
:101E200004E0534988420AD101210415204600F0FC
:101E30003CFA00212046BDE8104000F036BA10BD43
:101E4000F0B5002201274FF0030C0B6807FA02F5EA
:101E50002B40AB422CD1066853000CFA03F4A64386
:101E600006600E79D0F800E09E4046EA0E06066055
:101E70000E79012E01D0022E12D18668A64386600B
:101E80004E79D0F808E09E4046EA0E068660466825
:101E9000AE43466045688E799640B6B2354345609C
:101EA000C568A543C560CC799C40C3681C43C46029
:101EB000521C102AC9D3F0BD4FF6FF7101600021FA
:101EC000017141718171C171704708B541F480326F
:101ED0000092C261C1610099C161C169C06900908D
:101EE00008BD0246002012690A4200D00120704756
:101EF000006980B270470246002052690A4200D051
:101F000001207047406980B2704701837047418368
:101F100070470AB101837047418370474161704740
:101F200042694A40426170474B07DB0E9A40C9083C
:101F300010B500EB8100016A0F249C40A1430162AF
:101F4000016A1143016210BD00000240000402401A
:101F500000080240000C0240001002400014024041
:101F600000180240001C02400020024000240240F1
:101F700000280240F848016841F001010160F64A7A
:101F80000021083211600268F44B1A400260031D00
:101F9000F34A1A60F04BF34A84331A60F04A103A5D
:101FA0001B1D1A60026822F480220260EA480C308D
:101FB0000160181D01607047E7490022891C0A7002
:101FC0000870704702460020510901290CD00229EF
:101FD0000CD0E1497431096802F01F0201239340DB
:101FE0000B4200D001207047DB49F4E7DA49703139
:101FF000F1E718B500204FF4A04400903120FFF71E
:10200000E1FF0099491C0091A14201D00028F5D0C0
:102010003120FFF7D7FF002800D0012018BDCE4A9D
:10202000116821F0F80141EAC00010607047CE4904
:1020300008607047C849002270310A700A70012890
:1020400002D0042801D1052008707047C7490860F4
:10205000704741EA82115A0810B5C54B029C03EB48
:1020600002421143014341EA0460BB49091D086073
:1020700010BDBD4908667047800140EA0170B6494D
:10208000843108607047B84988667047800140EA2B
:102090000160B14940EA0270883108607047B24976
:1020A00008677047B049C8647047AB4B08331A687B
:1020B000084322F0EC62104318607047A64B0833C7
:1020C0001A68084322F07842104318607047A24A09
:1020D0000832116821F003010143116070479E48E6
:1020E0000830006800F00C0070479B4A0832116805
:1020F00021F0F001014311607047974A08321168DE
:1021000021F4E051014311607047934A083211688D
:1021100021F4604141EAC0001060704770B58E4BF9
:1021200008331968934C11F00C0104D0661004298F
:1021300003D0082903D004601BE0066019E0864A3A
:10214000121D1168C1F38055116801F03F0115B1EE
:10215000B6FBF1F101E0B4FBF1F114681268C4F3CD
:1021600088146143C2F30142521C5200B1FBF2F1E8
:10217000016019680F2202EA11117F4A545C01685C
:10218000E14041601C68072505EA9424145D21FAAA
:1021900004F484601B6805EA5333D25CD140C1600B
:1021A00070BDC0F30121032908D16B4B08331968B6
:1021B000724A21F4F81102400A431A6066497031EC
:1021C0000A68C0F30B0002430A607047674944394C
:1021D0000860704765494039086070476249C1F836
:1021E0005C0170475C4A8C321168401E21F01F016F
:1021F000014311607047584A8C3211686FF0FF0339
:1022000021F4F85103EB0020084310607047524A54
:102210008C32116821F440110143116070474E4A1D
:102220008C32116821F440010143116070474A4A21
:102230008C32116821F440310143116070475049DC
:10224000C1F8E0017047444A30320029116801D0DA
:10225000014300E08143116070473F4A3432002956
:10226000116801D0014300E08143116070473A4A90
:1022700038320029116801D0014300E08143116028
:102280007047354A40320029116801D0014300E00F
:10229000814311607047304A44320029116801D0EF
:1022A000014300E08143116070472B4A103200293E
:1022B000116801D0014300E0814311607047264A54
:1022C00014320029116801D0014300E081431160FC
:1022D0007047214A18320029116801D0014300E0FB
:1022E0008143116070471C4A20320029116801D0D7
:1022F000014300E0814311607047174A24320029EE
:10230000116801D0014300E0814311607047124A17
:1023100050320029116801D0014300E0814311606F
:1023200070470D4A54320029116801D0014300E082
:10233000814311607047084A58320029116801D062
:10234000014300E0814311607047034A6032002975
:10235000116817D0014316E000380240FFFFF6EA8B
:10236000103000240030002000004742800E474219
:102370000000FFFF0024F400C2000020FFFCFF0F5C
:1023800000104742814311607047194A00291168C3
:1023900001D0014300E081431160704714490C31C2
:1023A0000128086803D020F008000860704740F05A
:1023B0000800FAE70E4A573A0029117801D0014384
:1023C00000E081431170704709481030016841F006
:1023D0008071016070470146054A0020583A126832
:1023E0000A4200D0012070470149563908707047F1
:1023F0006438024010B501218C032046FFF77DFFB1
:102400002046BDE810400021FFF777BF144908605F
:10241000704714490862704710B58A0721F0030419
:102420001149120F21440F23D1F8084893409C43CF
:10243000C1F80848D1F8083890400343C1F808387B
:1024400010BD0849C1F8DC007047084908607047B2
:102450000349002020310968C90500D501207047D3
:1024600000380140000027420030014000042742AC
:10247000FE4910B5884206D101210846FFF73DFF0D
:10248000002101205BE0B0F1804F09D0F84988427B
:102490000DD101210220FFF726FF0021022070E06C
:1024A00001210846FFF71FFF0021012069E0F149E3
:1024B000884206D101210420FFF715FF00210420E6
:1024C0005FE0ED49884206D101210820FFF70BFFAC
:1024D0000021082055E0E949884206D10121102059
:1024E000FFF701FF002110204BE0E549884206D1AB
:1024F00001212020FFF7F7FE0021202041E0E149E3
:10250000884206D101210220FFF7F7FE00210220B8
:1025100015E0DD49884202D101210C040AE0DB49C3
:10252000884202D101214C0404E0D94988420AD1F1
:1025300001218C042046FFF7E0FE00212046BDE883
:102540001040FFF7DABED349884206D1012140206E
:10255000FFF7C9FE0021402013E0CF49884206D191
:1025600001218020FFF7BFFE0021802009E0CB4938
:1025700088420AD1841501212046FFF7B4FE0021CC
:102580002046BDE81040FFF7AEBE10BD30B5028852
:10259000B64CBC4DA0420DD0A8420BD0B0F1804F3C
:1025A00008D0B34B984205D0B24B984202D0B24B00
:1025B000984203D122F070034A881A43AF4B9842E5
:1025C00006D0AF4B984203D022F440730A891A43D5
:1025D00002804A68C2620A880285A04201D0A842ED
:1025E00001D1897A01860121818230BD4FF0FF310E
:1025F0004160002101800181418081727047018525
:1026000082827047028822F070020A43028070477B
:1026100041627047C1627047406A7047008D7047E1
:102620000029018802D041F0020101E021F00201FD
:10263000018070470029018802D041F0040101E0C7
:1026400021F00401018070470029018802D041F087
:10265000800101E021F0800101807047028822F0B2
:102660000802028002880A4302807047028822F42E
:102670004072028002880A43028070470029018864
:1026800002D041F0010101E021F001010180704719
:1026900030B5028C22F001020284028C8388048B04
:1026A00022F0020224F073050C882C438D89154317
:1026B0004A882A436D4DA84202D0724DA8420DD1DE
:1026C00022F00805CA8923F440732A4322F0040546
:1026D0008A882A430D8A1D434B8A2B4383800483B7
:1026E00089684163028430BD70B5028C22F010020B
:1026F0000284028C8388048B0D8824F4E6464FF60E
:10270000FF7404EA052535438E8922F0200204EA8D
:10271000061616434A8804EA02123243534EB04268
:1027200002D0584EB04215D122F08006CA8923F457
:10273000406304EA0212324322F040068A8804EA27
:10274000021232430E8A04EA86061E434B8A04EACA
:10275000830333438380058389688163028470BD6A
:1027600070B5028C22F480720284028C8388848B80
:102770000D8824F0730425438E894FF6FF7422F4EC
:10278000007204EA062616434A8804EA022232430B
:10279000364EB04202D03B4EB04215D122F4006614
:1027A000CA8923F4405304EA0222324322F48066A9
:1027B0008A8804EA022232430E8A04EA06161E437D
:1027C0004B8A04EA03133343838085838968C1639A
:1027D000028470BD70B5028C22F480520284058C94
:1027E0008288838B0C8823F4E6464FF6FF7303EA56
:1027F0000424344325F400568D8903EA0535354316
:102800004E8803EA06362E43184DA84202D01D4DCD
:10281000A84205D122F480450A8A03EA82122A439B
:102820008280848389680164068470BD00210180F0
:102830004180818081608181C181018241827047B4
:1028400030B50124058C00F118038C40A5430584A4
:1028500031B308292CD0091FC1F34E001844016878
:1028600048F6FF731940016001681AE0000001405A
:102870000004004000080040000C00400010004030
:1028800000140040000401400040014000440140A9
:102890000048014000180040001C0040002000409B
:1028A00006E04FF6FF7303EA02221143016030BDD8
:1028B00003EB510001684FF68F7319400160016806
:1028C000F3E74163704781637047C16370470164F8
:1028D0007047028B22F070020A4302837047028B1A
:1028E0004FF6FF7322F4E04203EA01211143018312
:1028F0007047828B22F070020A4382837047828B7A
:102900004FF6FF7322F4E04203EA01211143818371
:102910007047028B22F008020A4302837047028B41
:102920004FF6FF7322F4006203EA01211143018391
:102930007047828B22F008020A4382837047828BA1
:102940004FF6FF7322F4006203EA012111438183F1
:102950007047028B22F004020A4302837047028B05
:102960004FF6FF7322F4806203EA012111430183D1
:102970007047828B22F004020A4382837047828B65
:102980004FF6FF7322F4806203EA01211143818331
:102990007047028B22F080020A4302837047028B49
:1029A0004FF6FF73C2F30E0203EA012111430183C4
:1029B0007047828B22F080020A4382837047828BA9
:1029C0004FF6FF73C2F30E0203EA01211143818324
:1029D0007047028C22F002020A4302847047028C84
:1029E00022F008020A4302847047028C4FF6FF73FC
:1029F00022F0200203EA0111114301847047028C86
:102A00004FF6FF7322F0800203EA011111430184A3
:102A10007047028C4FF6FF7322F4007203EA012123
:102A2000114301847047028C4FF6FF7322F4006259
:102A300003EA0121114301847047028C4FF6FF73B2
:102A400022F4005203EA013111430184704710B5AA
:102A50000123048C8B409C430484038C8A401343E1
:102A6000038410BD10B50423048C8B409C43048464
:102A7000038C8A401343038410BD828B22F440628E
:102A80008283828B4FF6FF7303EA01210A4382831C
:102A90007047828B22F00C028283828B0A438283EE
:102AA0007047028B22F440620283028B4FF6FF7361
:102AB00003EA01210A4302837047F0B5048C24F035
:102AC00010040484078B068C4FF6FF7404EA01158A
:102AD00027F4734704EA0331394304EA02220A4324
:102AE00026F0A001294341F0100102830184F0BDCA
:102AF000028B22F00C020283028B0A43028370478E
:102B00002DE9F0410C460E884988A28823890546A4
:102B10000EB3042E26D0082E2E8C4FF6FF7028D030
:102B200026F480562E84AF8B2E8C00EA022200EA17
:102B3000013127F473473A4300EA0330104326F487
:102B400020420A4342F48051A8832984E188284620
:102B5000BDE8F04191E700F062F9E1882846BDE860
:102B6000F041C5E7FFF7A9FFE1882846BDE8F0413D
:102B700097E726F480762E84AF8B2E8C00EA012115
:102B800000EA0310104327F0F307384326F42062CD
:102B90000A4342F48071A8832984E1882846BDE86D
:102BA000F04176E700210180418001228280C180CE
:102BB000018170472DE9F0410C46002649880746FF
:102BC000012501B90226A288012A00D10225208808
:102BD00023890028384610D0FFF76FFFE188384678
:102BE000FFF75FFF23892A463146384600F017F980
:102BF000E1883846BDE8F0417AE700F010F9E18855
:102C00003846FFF775FF23892A4631463846FFF7D5
:102C100054FFE1883846BDE8F04142E7406B704719
:102C2000806B7047C06B7047006C704710B50A88A6
:102C30004B88CC881A438B8823431A430B891A4349
:102C40004B8989891A430A43A0F8442010BD00210A
:102C5000018041808180C1800181418181817047F3
:102C6000002930F8441F02D041F4004101E0C1F3D3
:102C70000E01018070470029818802D041F00401D3
:102C800001E021F00401818070470029818802D091
:102C900041F0010101E021F0010181807047002A2B
:102CA000828901D00A4300E08A4382817047818291
:102CB000704702460020128A0A4200D00120704765
:102CC000C9430182704702460020138A92890B4251
:102CD00002EA010202D0002A00D001207047C94355
:102CE000018270471143A0F848107047002A82897A
:102CF00001D00A4300E08A4382817047002981881D
:102D000002D041F0080101E021F008018180704704
:102D1000018921F0070101817047028922F07002C8
:102D20000A430281704700B50346FFF7F6FF188992
:102D300040F00700188100BD70B516460D466029A9
:102D400004464FF0010231460AD000F068F82946E7
:102D50002046FFF7E2FF208940F00700208170BD88
:102D6000FFF7ABFEF3E730B504894FF6FF7505EAD0
:102D700003231343E4B20B432343038130BD10B557
:102D80000446FFF7F0FF208940F07700208110BD56
:102D900010B50446FFF7E7FF208940F4804020810A
:102DA00010BD828822F07002828082880A4382806D
:102DB0007047028922F00702028102890A430281D8
:102DC0007047028922F08002028102890A4302814F
:102DD000704770B50589048B068C25F007050D43F7
:102DE0004FF6FC410C4040F201110C434FF6FF71CD
:102DF00001EA031126F022061143314305810483C1
:102E0000018470BD0029818802D041F0800101E079
:102E100021F0800181807047A0F85010704770B594
:102E2000048C24F001040484058B048C4FF6FF7697
:102E300006EA0313134325F0F3052B4324F00A029B
:102E40000A4342F001010383018470BDCD4910B5EE
:102E5000884206D101211020FFF74FFA00211020EF
:102E600020E0C949884202D101214C0429E0C74928
:102E7000884202D101218C0423E0C549884202D155
:102E80000121CC041DE0C349884202D101210C0577
:102E900017E0C149884209D101212020FFF72DFA0E
:102EA00000212020BDE81040FFF727BABB49884227
:102EB00002D101218C0704E0B94988420AD10121DD
:102EC00044052046FFF70FFA2046BDE810400021D8
:102ED000FFF709BA10BD7FB50446008A0D46C988C0
:102EE00020F4405001432182A08941F20C618843C3
:102EF000A9882A8911436A8902431143A181A08AC2
:102F000020F44071A8890843A0826846FFF706F9BB
:102F10009C48844202D0A048844201D1039800E03A
:102F20000298A189090400EBC00101EB0010296897
:102F300001D5490000E08900B0FBF1F06422B0FB4C
:102F4000F2F109010B096FF018056B4300EB8300E8
:102F5000A3891D044FF0320306D503EBC000B0FB7C
:102F6000F2F000F0070005E003EB0010B0FBF2F018
:102F700000F00F00084320817FBD4FF4165101601F
:102F800000218180C18001810C22428181817047B2
:102F900010B5028A4C8822F470630A8822438C8818
:102FA000C9880C4322431A43028210BD00210180CC
:102FB00041808180C18070470029818902D041F41D
:102FC000005101E021F4005181817047028B02F42D
:102FD0007F420283028B0A43028370470029818962
:102FE00002D041F4004101E0C1F30E01818170473C
:102FF0000029818A02D041F4006101E021F40061DE
:1030000081827047C1F30801818070478088C0F3D6
:1030100008007047028A22F00F020282028A0A43E5
:10302000028270470029818902D041F0020101E04B
:1030300021F0020181817047828922F4006282813D
:1030400082890A4382817047028A22F0200202822A
:10305000028A0A43028270470029018A02D041F4A1
:10306000804101E021F4804101827047818941F073
:103070000101818170470029818A02D041F0080155
:1030800001E021F0080181827047028BD2B20283F5
:10309000028B42EA0121018370470029818A02D014
:1030A00041F0200101E021F02001818270470029D8
:1030B000818A02D041F0100101E021F010018182EB
:1030C0007047828A22F004028282828A0A438282C4
:1030D00070470029818A02D041F0020101E021F00D
:1030E000020181827047002A828A01D00A4300E0EF
:1030F0008A438282704710B5C1F3421301F01F0466
:103100000121A140012B07D0022B07D01430002A47
:10311000026805D00A4304E00C30F8E71030F6E707
:103120008A43026010BD0246002012880A4200D085
:1031300001207047C9430180704770B501F01F0539
:1031400001260024C1F3421306FA05F2012B0FD029
:10315000022B0FD0838A4FEA11210088134206FA0E
:1031600001F600EA060001D000B10124204670BD3E
:103170008389F0E7038AEEE70A0A01219140C943F7
:1031800001807047001001400044004000480040AA
:10319000004C004000500040001401400078004006
:1031A000007C004010B501214C062046FFF77DF859
:1031B0002046BDE810400021FFF777B801210160EB
:1031C0000021416081604FF48042C160C0E9041277
:1031D000D2108161C0E9071241628162C16201635C
:1031E000416340228163C0E90F122022C0E911210E
:1031F000C1640165416581658022C165C0E918121D
:103200008166C16601674167D2048167C0E91F1208
:103210005210C0E921211311C0E92331C0F89410E4
:10322000C0F89810C0F89C10C0E928125212C0F8DB
:10323000A8209201C0F8AC205212C0E92C21C0F89D
:10324000B810704738B500230093F84B1C694FF64F
:10325000FF7504F01C0405EAC02020434FF4F86415
:1032600004EA8111014341F003005A611861F049F9
:103270000098401C00901869C00702D0009888424E
:10328000F6D30098884201D1002038BD012038BD16
:1032900018B500220092E54A13694FF6FF7403F057
:1032A0001C0304EAC02018434FF4F86303EA8111B9
:1032B000014321F0020040F001001061DC49009858
:1032C000401C00901069C00702D000988842F6D3D5
:1032D0000098884201D1002018BD506980B218BD05
:1032E0002DE9F04186B00027D04E044600970197A3
:1032F0003069884620F01C0502A8FEF70FFFCD4973
:103300000398CD4A0144914202D245F0080516E0E7
:10331000CA49CB4A0144914202D245F00C050EE065
:10332000C849C94A0144914209D3C8490844C84917
:10333000884202D245F0040501E045F010053561F0
:103340004FF4004200214046FFF77CFF00282DD0BB
:10335000C04800F075FC2068B0B3B54D019801215C
:10336000401C01904046FFF793FF400702D40198AC
:10337000A842F3D30198A84217D04FF480520021FD
:1033800040460197FFF75EFF00280FD0019801210A
:10339000401C01904046FFF77BFF800602D4019855
:1033A000A842F3D30198A84203D1002006B0BDE89B
:1033B000F0811F2140460197FFF76AFFC10604D53F
:1033C0004FF40061216201E008E02762400701D567
:1033D000676113E04FF4804060610FE0206A61692B
:1033E000C00840EA510082B200214046FFF72AFFA0
:1033F0000028DBD06FF07F4000F022FC3168964857
:103400000140D4E901021043E26854F8103F1A4326
:10341000104362681043A2681043E26810432269B7
:10342000104362691043A2691043E2691043226AA3
:103430001043626A104308433060F4E90A0108430C
:10344000D4E9021211430843216908436169084322
:10345000A1690843E16908437060206AB060606A4E
:10346000F060B1694FF641700140D4E90B0210439E
:10347000238D626B42EA03421043A26B1043E26B5E
:1034800010430843B061D4E910010843F061734868
:10349000826973490A40D4E912131943D4E91435F7
:1034A0002B431943A36D1943E36D1943236E19434D
:1034B000636E1943A36E194311438161D4E91B1252
:1034C0001143626F54F8783F1A431143626841EA2E
:1034D0008201A268114341F400010160016841F0DA
:1034E00080010160012061E75C490028886902D001
:1034F00040F0020001E020F0020088617047574967
:103500000028886902D040F4005001E020F4005007
:103510008861704745490028086802D040F00400DF
:1035200001E020F00400086070474C48816941F4D4
:103530008011816170473D490028086802D040F041
:10354000080001E020F008000860704700B5012085
:10355000FFF7F1FFFFF7E9FF0120FFF7DBFF012095
:10356000FFF7CDFF01205DF804EBBDE72F490020F8
:103570008969C90700D0012070472C48816941F052
:1035800001018161704729490028886902D040F013
:10359000010001E020F0010088617047234A0146E4
:1035A0000020926B0A4200D0012070471F4A01465A
:1035B0000020926B0A4200D0012070471B4A00296C
:1035C000D16B01D0814300E00143D1637047174BB9
:1035D0008A88184402640A78D1F8011042EA01216D
:1035E00041647047114A0244106C030A4B71087120
:1035F000506C020ECA70020C8A70020A4A7008707F
:1036000070470A4A00291044016C02D041F0004181
:1036100001E021F0004101647047044A0829104488
:10362000016C1FD041F080411EE00000008002408C
:10363000FFFF040000D3CEFEC0E1E40040F1E9FD4D
:1036400040787D0100796CFC005A6202001F0AFA82
:1036500080F0FA02FFFF0F000F8120FF0090024070
:10366000233FDEF821F0804101647047F74A10449F
:10367000026C22F07C520264026C0A4302647047BE
:1036800030B5F34C61680A68C2F30D43A2689568CF
:103690001B1F012D02D91268926800E08A68CD686C
:1036A00065600360C0E9012130BD38B5E84C0023F6
:1036B0000093D4E9012117E06D1C00951568AD0554
:1036C00007D51568ED0504D40A6001228A60626896
:1036D00008E01568ED0511D41568AD050ED48D68A8
:1036E0006D1C8D60D26862601568002D02DB009D44
:1036F000052DE1D303604360836038BD4A608B6869
:103700005B1C8B608B68012B00D10A6062681368B8
:103710008D68C3F30D431B1F012D02D90968896809
:1037200000E09168D56865600360C0E9011238BDAA
:10373000F0B5C74C002221680B68002B01DA00208D
:10374000F0BD40F2F455A84215D9B0FBF5F6B0FB38
:10375000F5F305FB160606B15B1C012B0BD0C3F17C
:103760000107C7EBC71707EB470700EB87005E1E93
:10377000C0F30C0723E00A6842F040520A60C0F32D
:103780000C004860086840F000400860C86820608D
:1037900018E032B92068D0F800C04CF0805CC0F866
:1037A00000C04D60B24204D1086840F0005008608B
:1037B0004F60086840F000400860C968521C9A4297
:1037C000E7D32160A3484169490703D5042141613A
:1037D000002141600120F0BDF0B59D4F00234FF066
:1037E000004C44F2F45E561E786013E000EB431484
:1037F000C4F800C0C3EBC31505EB450501EB850517
:10380000C4E901E5B34203D204F12005E56000E01C
:10381000E0605B1C9342E9D38E49C8608E48B86073
:10382000F0BD8B4A506803681146002B896808DB9D
:103830000368DB0505D548608868401C8860012066
:1038400070470368002B0CDB03689B0509D50368F0
:10385000DB0506D4086000204860012088605068BD
:103860000BE00368002B0ADB03689B0507D40368A1
:10387000DB0504D48B685B1C8B60C0685060002043
:103880007047F0B5724C00234FF48017561E20602D
:1038900011E000EB43142760C3EBC31505EB4505AE
:1038A00001EB8505A560B34203D204F12005E56074
:1038B00000E0E0605B1C9342EBD366490861F0BD19
:1038C0000246002012680A4200D0012070470068BA
:1038D000C0F3C3007047016841F0004101607047C8
:1038E0000029016802D041F0804101E021F08041CF
:1038F0000160704702680A430260704702680A4329
:10390000026070470029016802D021F0006101E0E7
:1039100041F00061016070470029016802D041F464
:10392000801101E021F480110160704700290168D5
:1039300002D021F0806101E041F0806101607047B8
:10394000436841EA02410B4343607047024600204E
:1039500012680A4200D00120704702460020126916
:103960000A4200D001207047016841F00041016027
:1039700070470068C0F30D407047426811B122F0F3
:10398000004101E042F0004141607047406811B1E0
:10399000C0F30C407047C0F30C0070470268002170
:1039A000002A08DB0268120405D40268D20502D599
:1039B0000068C0F30D410846704726490028086892
:1039C00002D040F0800001E020F0800008607047E5
:1039D0002048016841F00101016070471D49002045
:1039E0000968C90700D0012070471A4A0146002023
:1039F00052690A4200D00120704716494861704759
:103A0000144A0029D16901D0014300E08143D1610A
:103A10007047104A0146002052690A4200D0012036
:103A200070470C49486170470A48406900F001003E
:103A300070470848406900F0400070470549002081
:103A40008969C90200D5012070470000008002404A
:103A5000D400002000900240B40D00207D4A0146B1
:103A60000020126A0A42EFD00120EDE77948006A8F
:103A7000C0F34A40E8E77748006A80B2E4E7754857
:103A8000806CE1E77348C06CDEE77248006DDBE7ED
:103A90007048406DD8E76F4900204860D4E76D4911
:103AA00000208860D0E76B494862CDE730B50C460E
:103AB00005460021FFF7ECFB14B140F4804201E021
:103AC00020F4804200212846FFF7BCFB002800D0EC
:103AD000012030BD6048C16A41F00041C162B3E7D6
:103AE0005D4A002150F821309362491C0829F9D31E
:103AF000AAE759490028C86A02D040F4007001E0E2
:103B000020F40070C8629FE7534A01460020D26A41
:103B10000A4299D0012097E74F490028C86A02D08D
:103B200040F0040001E020F00400C8628CE74A493C
:103B30000028C86A02D040F0020001E020F0020034
:103B4000C86281E744490028C86A02D040F00100F9
:103B500001E020F00100C86276E73F48D0F800118C
:103B600041F03001C0F800116EE73B48D0F8001179
:103B700021F02001C0F80011D0F8001141F010012F
:103B8000C0F8001160E734490028D1F8000102D0E4
:103B900040F0080001E020F00800C1F8000153E700
:103BA0002D490028D1F8000102D040F0040001E0C6
:103BB00020F00400C1F8000146E727490028D1F8A9
:103BC000000102D020F0020001E040F00200C1F844
:103BD000000139E72048D0F8001141F00101C0F898
:103BE000001131E71C4AC3000BD50029D2F80C1193
:103BF00020F0805001D0814300E00143C2F80C1155
:103C000022E70029D2F8101101D0814300E00143DE
:103C1000C2F8101118E700210F4AC30002D5D2F8EC
:103C2000043101E0D2F80831034204D0D2F80C216B
:103C3000024200D10121084606E70749405803E740
:103C400001B581B001980090002801D0401EFAE72C
:103C50000CBD000000900240008002402DE9F043BE
:103C6000016821F001010160002101604160816073
:103C7000C160016121214161B849B84A3D2510392F
:103C8000904202D18D60BDE8F083B44A4FF474666F
:103C90001832904201D18E60F5E7B04A4FF47417A4
:103CA0003032904201D18F60EDE7AC4A4FF0746C36
:103CB0004832904202D1C1F808C0E4E7A74BA84AB5
:103CC0006033984201D1CA60DDE7A44CA54B78343B
:103CD000A04201D1CB60D6E7DFF88082A24C08F188
:103CE0009008404501D1CC60CDE7DFF870824FF0FD
:103CF0003D5908F1A808404502D1C1F80C90C2E72F
:103D00009A49DFF868820839404501D10D60BAE769
:103D1000964D1835A84201D10E60B4E7934D303569
:103D2000A84201D10F60AEE7904D4835A84202D1BC
:103D3000C1F800C0A7E78D4D8C496035091FA84226
:103D400001D10A609FE7894A7832904201D10B6025
:103D500099E7864A9032904201D10C6093E7834AFA
:103D6000A83290428FD1C1F800908CE730B503683B
:103D70007F4ACC6813400A682243D1E905452C43A9
:103D80002243CC6922430C6A22434C6A22438C6A48
:103D900022434C6B22438C6B22431A4302604269DC
:103DA00022F00703D1E90B2422431A4342610A6936
:103DB00042604A6882608968C16030BD002101604C
:103DC00041608160C160016141618161C1610162E5
:103DD00041628162C162016341638163704700296E
:103DE000016802D041F0010101E021F00101016010
:103DF00070470029016802D041F4004101E021F43C
:103E00000041016070470029016802D041F02001A3
:103E100001E021F020010160704741607047406877
:103E200080B27047002A026802D042F4002201E00A
:103E300022F400220260016170470029016802D06B
:103E400041F4802101E021F48021016070470AB132
:103E500001617047C160704701460020096809038D
:103E600000D501207047014600200968C90700D02D
:103E700001207047406900F03800704702463B4B14
:103E800000209A4202D2354A103A01E0374A103AED
:103E90008B0001D5526800E01268364B1A400A4286
:103EA00000D001207047314A904202D22B4810388E
:103EB00001E02E4810382F4A8B0001EA020101D59B
:103EC000C1607047816070470B0607D5436912B126
:103ED00043F0800301E023F080034361802908D090
:103EE000002A026801F01E0101D00A4300E08A4363
:103EF0000260704730B51D4A0024904202D2174A32
:103F0000103A01E0194A103A1B4B194205D01E2302
:103F100003EAD12503682B4002E0406900F08003EA
:103F2000880001D5506800E01068124A104008422D
:103F300001D003B10124204630BD0C4A904202D288
:103F40000648103801E0094810380A4A8B0001EA97
:103F5000020101D5C1607047816070471060024066
:103F60003D000020400F002000003D201064024072
:103F70003F801CF07D0F7D0F3C0F3C0FC14910B5F9
:103F8000884202D10121841424E0BF49884202D131
:103F90000121041404E0BD4988420AD10121C4135F
:103FA0002046FEF7A0F92046BDE810400021FEF7AC
:103FB0009AB9B749884202D1012144140AE0B549AF
:103FC000884202D101210C0504E0B34988420AD19C
:103FD00001214C052046FEF790F92046BDE810402F
:103FE0000021FEF78AB910BD30B502884C8802F472
:103FF00041530A88CD8822438C882C4322430C8964
:1040000022434C8922438C892243CC8922431A4380
:104010000280828B22F400628283098A018230BD91
:10402000F0B502220023858B01244FF24006354073
:1040300085830284868B8D68022D3DD08A8802B1EB
:104040000224964A13681B0203D5136823F4000365
:104050001360924A7C3213681268C3F388138F4F3F
:10406000C2F302723F1F3D683F6805F03F057F02C3
:1040700001D58B4F00E08B4FB7FBF5F55D43B5FBEA
:10408000F2F2CB88B3F5007F2BD06301B2FBF3F2E1
:1040900002EB82028B685200B2FBF3F2521D92B225
:1040A0000A23B2FBF3F202F00103D21A4FF6FF74B7
:1040B000C2F34F0204EA0323941EFE2C01D3022212
:1040C0000023CC881A43144304840A884B881A437B
:1040D0008B8889890B431A43324342F40061818300
:1040E000F0BD120AD4E70021018041808180C180A7
:1040F000018141818181C1810721018270470021B5
:10410000018041808180C18002228260818170476C
:104110000029018802D041F0400101E021F0400176
:10412000018070470029818B02D041F4806101E059
:1041300021F4806181837047028822F4006202804A
:1041400002880A4302807047B1F5804F018803D08E
:1041500021F480410180704741F48041FAE7A1F5E4
:104160007E420188FF3A02D041F4807101E021F4DF
:104170008071018070470029818802D041F00401DC
:1041800001E021F00401818070470029818802D07C
:1041900041F0100101E021F010018180704730B53D
:1041A000828B00234FF24004224082830222028449
:1041B000848B0A884FF48075B2F5007F00D002B975
:1041C0002B464A888D8889892A4319430A4322430A
:1041D00042F40061818330BD8089704781817047DE
:1041E0000029018802D041F4005101E021F400517E
:1041F00001807047018841F4805101807047012996
:1042000001D0008B7047808A7047008A7047002A6F
:10421000828801D00A4300E08A43828070470909FE
:1042200001238B40002A828899B201D00A4300E022
:104230008A43828070470246002012890A4200D0D9
:1042400001207047C9430181704730B501F00F0369
:104250000125024605FA03F40020A3B2090905FA74
:1042600001F49188A4B2128921401A4202D0002997
:1042700000D0012030BD01F00F0201219140C9435F
:10428000018170470030014000380040003C004090
:104290000034014000500140005401400838024001
:1042A00000127A000024F40010B504466FF00400F8
:1042B000FDF748FD2849E00800EB40020870C2EB1A
:1042C000C0104FF6FF7202EAC000488010BD2249BC
:1042D000097848434FF0E021486100238B61086969
:1042E00040F0010008610869C20701D0C003FAD597
:1042F000086920F0010008618B6170471649498800
:1043000048434FF0E021486100238B61086940F089
:10431000010008610869C20701D0C003FAD5086925
:1043200020F0010008618B6170470B4949884843C0
:104330004FF0E021486100238B61086940F00100E3
:1043400008610869C20701D0C003FAD5086920F0E6
:10435000010008618B617047E0000020704742490E
:104360000A885206FCD5C2B28A807047F0B506466C
:10437000012187B00846FDF766FF01211020FDF7F7
:104380008AFF3A4D072209212846FDF7CDFD072275
:104390000A212846FDF7C8FD02218DF814108DF87A
:1043A00015104FF4C060002404908DF816400127CA
:1043B0008DF8177004A92846FDF742FDADF80440BA
:1043C000ADF80640ADF80840ADF80C400C20264C86
:1043D000ADF80A00009669462046FEF77CFD0121F3
:1043E0002046FEF7E9FD40212046FEF7A3FE01220C
:1043F00040F225512046FEF77EFE25208DF818005C
:1044000003208DF819008DF81A008DF81B7006A88E
:10441000FDF757FC07B0F0BD10B5134C40F2255125
:104420002046FEF78AFE00281CD02046FEF7EEFD4F
:104430000F4AC1B21088030414D4430402D540F4D7
:1044400000400EE00D290AD0C0F30D03094C401CBA
:1044500080B2E1541080C72804D9002001E040F464
:104460008040108010BD000000100140000002409C
:10447000E4000020C00D002010B59948016800201C
:1044800007F01FFA97480168BDE81040002007F0C8
:1044900018BA10B502F0A4F90146002007F01AFA84
:1044A0008F4C43F69C612060002007F013FA8D4981
:1044B0000860216811B108B1002010BDFFF7DCFFD2
:1044C000012010BD884910B50968884B1A68147B13
:1044D0008471547BC471947B0472D27B4272022239
:1044E00002700022427082700C0CC4700C0A0471BD
:1044F000417119680B7883724B78C3728B780373A0
:10450000CB7843730B7983734B79C3738B790374C3
:10451000CB7943740B7A83744B7AC3748B7A0375AB
:10452000C97A4175827510BD10B586B0FCF7F2FAF4
:1045300010B1022006B010BD02F042F96C48FFF73E
:10454000C1FF6B4CA07AD4F80B1040EA0120039015
:10455000A07BD4F80F1040EA01200490A07CD4F88E
:10456000131040EA01200590E078627921798DE806
:104570000700A378627821785EA00CF085FA607B52
:104580000090237BE27AA17A69A00CF07DFA607C2E
:104590000090237CE27BA17B73A00CF075FA607D18
:1045A0000090237DE27CA17C7CA00CF06DFA894A0E
:1045B000894900208DE8070005AB04AA03A904F18E
:1045C0001C0002F013FA48B104F11C0002F03DFA9D
:1045D00004F11C0002F088FA0020ABE70320A9E7F1
:1045E00043481C3000F078BE10B57C4C2168A068B0
:1045F000411AFA2902D3206003F0C0FED4E9011069
:10460000411A41F28832914204D36060BDE8104003
:1046100000F014B910BD30B53448354C87B000688F
:10462000FF2300250278A2724178E172817821731C
:10463000C1786173A373E373257465740178A17401
:104640004078E074257501206075D4F80B0042EACB
:1046500000200390D4F80F0043EA00200490D4F81F
:10466000130041EA00200590E078627921798DE815
:104670000700A3786278217859A00CF005FA607BD6
:104680000090237BE27AA17A29A00CF0FDF9607CEE
:104690000090237CE27BA17B33A00CF0F5F9607DD8
:1046A0000090237DE27CA17C3CA00CF0EDF904F1AC
:1046B0001C0002F0CDF905A904F11C0002F04FF92D
:1046C00004A904F11C0002F04EF903A904F11C0036
:1046D00002F04DF904F11C0002F006FA07B030BDFB
:1046E0001801002080010020107AFF1FB400002074
:1046F000880E002045746865726E6574204D4143D4
:1047000020416464726573733A2E2E2E2E2E2E2E47
:104710002E2E2E2E2E2E2E2E2E25642E25642E2568
:10472000642E25642E25642E25640D0A00000000E9
:104730004C6F63616C2049502041646472657373EF
:104740002E2E2E2E2E2E2E2E2E2E2E2E2E2E2E2E89
:104750002E2E2E2E2E2E2E2E25642E25642E2564F2
:104760002E25640D0A0000005375626E6574204D9D
:1047700061736B2E2E2E2E2E2E2E2E2E2E2E2E2EA4
:104780002E2E2E2E2E2E2E2E2E2E2E2E2E25642E1C
:1047900025642E25642E25640D0A0000476174658A
:1047A00077617920416464726573732E2E2E2E2EEC
:1047B0002E2E2E2E2E2E2E2E2E2E2E2E2E2E2E2E19
:1047C0002E2E2E2E2E25642E25642E25642E256455
:1047D0000D0A0000075100084D530008EC000020AE
:1047E00045746865726E6574204D41432041646470
:1047F000726573733A2E2E2E2E2E2E2E2E2E2E2EC8
:104800002E2E2E2E2E25782E25782E25782E2578C4
:104810002E25782E25780D0A0000000070B5F74D82
:1048200000EB8004002655F8240018B102F0C0F90E
:1048300045F8246005EB8400867470BD70B5EF4DBB
:10484000002404EB840005EB8000827C92B1C17CE3
:10485000491CC9B2C174F02906D2012A02D0032A28
:1048600006D007E0022905D32046FFF7D7FF01E075
:1048700002218174641CE4B20A2CE2D370BD2DE9DC
:10488000F34F80460A2085B0002402900746A346D5
:10489000A2460190A1460090D84904EB840001EBA8
:1048A00080060390B57C0A2F18D0002D24D0012D4E
:1048B00008D0022D06D2D2A340F22B12DAA1EAA030
:1048C0000CF0E2F8B8F1000F0CD0D8F800007168D5
:1048D000884207D160B207B0BDE8F08F002DE6D165
:1048E00067B209E0012D15D0022D05D3F07C5045AB
:1048F00002D361B282460191641CE4B20A2CCBD38C
:10490000069881074FF0FF30E5D40A2F15D017DA4B
:10491000FCB23AE0B948039950F821000028F07C35
:1049200005D04845E8D361B281460091E4E7584597
:10493000E2D361B283460291DEE70699C907CAD085
:1049400001990A290EDACCB2AC4804EB840150F884
:10495000210070B1AAA340F27112CEA1C2A00CF046
:1049600093F806E002990A2902DB00990A29B2DAD3
:10497000CCB20A2C06D3A2A340F28312CBA1BAA0D8
:104980000CF082F82046FFF749FF0A2C06D39CA3BF
:1049900040F28712C5A1B4A00CF076F8974804EB5A
:1049A000840100EB8105A87C30B195A34FF4C4725B
:1049B000C3A1ADA00CF068F8B8F1000F02D0D8F890
:1049C000000068600020E87484E72DE9F0410546A6
:1049D00090F822004C681E4617468846062806D0E6
:1049E00087A340F2A312C1499FA00CF04DF8306894
:1049F0002060B088A0803868C4F80600B88860815C
:104A00000820A08141462846AA69BDE8F041104728
:104A10002DE9F041044690F822001F4615460E4647
:104A2000062806D076A340F2C312B1A18EA00CF0E6
:104A30002BF886B3306870B3214601F079F950BB8A
:104A40003078C0F303100E2826D039463046FFF7E1
:104A500016FF00281DDB694A00EB800102EB810094
:104A60000223837484602B68C360AB8803820023B5
:104A7000C37452F821605EB142F821302B4604F134
:104A8000230231462046FFF7A0FF304602F090F89F
:104A90000020BDE8F081FFE76FF00D00F9E770B589
:104AA000564E0546002404EB840006EB8000817C12
:104AB00029B18068A84202D12046FFF7AFFE641CEE
:104AC000E4B20A2CEFD370BD70B51C4615000E463B
:104AD00001D0002C06D14AA34FF418728EA162A017
:104AE0000BF0D2FF02213046FFF7C9FE00280DDB94
:104AF000424900EB800201EB82018A7C022A05D345
:104B000001F10C02091D2A60216070BD4FF0FF30D9
:104B100070BD2DE9F84F90468946050010D0B8F8D1
:104B20000A002A2866D3D8F804604FF4807A344605
:104B300034F80E0F50455DD1207906285AD108E08F
:104B40002FA340F2BB227DA147A00BF09DFFBDE843
:104B5000F88F607904284DD1608808284AD1D4F8AC
:104B60000E000090A169281D05D0686818B1814227
:104B700001D1012700E000270FB1012300E002234B
:104B800004F1080269462846FFF742FFE0885045D5
:104B900030D1002F2ED0022001F00AFEE080D4F8A0
:104BA0000E00A0616868C4F80E0095F8220006287F
:104BB00006D013A340F211324C492BA00BF064FF36
:104BC000A068C4F81200A089E082A0683060A089C3
:104BD000B080D9F80010A160B9F80400A081D9F81C
:104BE0000010C6F80610B9F804007081AA694146A1
:104BF00028469047404601F0DBFFA8E7D40E00208E
:104C00002E2E5C4C5749505C6C7769702D312E34D8
:104C10002E315C7372635C6E657469665C65746882
:104C20006172702E630000007374617465203D3DF5
:104C3000204554484152505F53544154455F5045BC
:104C40004E44494E47207C7C207374617465203E3D
:104C50003D204554484152505F53544154455F53A1
:104C60005441424C45000000417373657274696F92
:104C70006E2022257322206661696C656420617450
:104C8000206C696E6520256420696E2025730D0AED
:104C9000000000006172705F7461626C655B695D49
:104CA0002E71203D3D204E554C4C000069203C208B
:104CB0004152505F5441424C455F53495A450000B0
:104CC0006172705F7461626C655B695D2E737461A3
:104CD0007465203D3D204554484152505F53544136
:104CE00054455F454D5054590000000048310108BB
:104CF0006E657469662D3E6877616464725F6C6589
:104D00006E203D3D204554484152505F4857414434
:104D100044525F4C454E00006574685F72657420B4
:104D2000213D204E554C4C2026262069705F72652F
:104D30007420213D204E554C4C0000006E65746976
:104D40006620213D204E554C4C0000002DE9F05FBF
:104D50009846DDF82CB091468A46070009D1AFF29B
:104D6000601340F2A542AFF22C01AFF204100BF039
:104D70008BFE00222A21032001F06FFF060057D08E
:104D800070892A2808D2AFF288134FF49662FBA1EB
:104D9000AFF22C100BF078FE75680D9805F10E043B
:104DA00001F006FDE08097F82200062808D0AFF257
:104DB000B013FF494FF49762AFF254100BF064FE4A
:104DC000D8F80010A160B8F80400A081DBF800104A
:104DD000C4F81210BBF80400E082D9F80010296072
:104DE000B9F80400A880DAF80010C5F80610BAF87F
:104DF000040068810A9831460068C4F80E000C98D7
:104E00000068A0614FF48070208008206080062038
:104E10002071042060714FF4C160A881BA693846DE
:104E200090470446304601F0C3FE2046BDE8F09F9F
:104E30004FF0FF30FAE71FB50123DE4C021DCDE92C
:104E40000213CDE9002400F123031946A21FFFF746
:104E50007DFF04B010BD70B505460E46D64802EB86
:104E6000820100EB8104A07C022808D2AFF27023FB
:104E70004FF45372D1A1AFF210200BF005FEA07CCD
:104E8000022809D1E07CE42806D3211D2846FFF73B
:104E9000D2FF08B90320A07404F10C0305F123022A
:104EA00031462846BDE870408FE52DE9F74F82B0C6
:104EB000884602984FF0FF3B233000900868164662
:104EC0005F46029900F034FF00282BD1D8F800008B
:104ED000C0F303110E2925D0B8F1000F22D000280D
:104EE00020D001214046FFF7CAFC04001CD4DFF8A3
:104EF000C8A204EB84090AEB8905A87C002815D018
:104F0000012815D002280BD2AFF20C3340F219421F
:104F1000B6A1AFF2AC200BF0B7FDA87C012807D0FA
:104F200036B10CE06FF00D0005B0D5E40120A87497
:104F300041460298FFF77FFF0746002EF4D0A87C79
:104F400002280AD3B34805F10C0331460470009AD5
:104F50000298FFF73AFD07463AE0D046012837D1DC
:104F60000025344640F23E4760892189884209D1B4
:104F7000206838B1AFF278333A46A7A1AFF21830C3
:104F80000BF082FD207B012803D12468002CEBD19B
:104F900075B121890022032001F05FFE050016D0C3
:104FA000314602F0E2F940B1284601F001FE0EE080
:104FB0003546304602F062F94DB158F829004446B2
:104FC00008B101F0F5FD44F82950002700E05F46E4
:104FD0003846A9E72DE9FC4115460E46040009D1E3
:104FE000AFF2E43340F27532AFF2B021AFF2883065
:104FF0000BF04AFD46B9AFF2F83340F276328DA19C
:10500000AFF29C300BF040FD45B9AFF20C4340F2DB
:1050100077328BA1AFF2B0300BF036FD0E21304667
:1050200001F090FF18B16FF00100BDE8FC8121464E
:10503000286800F07DFE10B15E4B9B1F3CE02868A5
:10504000C0F303110E2922D0A168636800EA0102AF
:105050000B409A420BD080B2A0F57E41A93906D010
:1050600014F10C0F2FD0E06868B304F10C05694B04
:10507000514A187800EB800102EB81018F7C022FEE
:1050800024D32F6849688F4220D102462CE00120AA
:105090008DF8000000208DF801005E208DF80200E0
:1050A00068786B4600F07F008DF80300A8788DF8D3
:1050B0000400E8788DF8050004F12302314620460B
:1050C000FFF783FCB1E76FF00300AEE7002000EBD1
:1050D000800102EB81018F7C022F0AD32F6849687F
:1050E0008F4206D1C2B21A7031462046FFF7B3FE96
:1050F0009BE7401C40B20A28E9DB3246294620469D
:10510000FFF7D3FE91E770B5044640890D460E289F
:1051100033D9606801788689CA0715D0012906D07D
:1051200024490622891F0BF064FE48B10CE0417847
:1051300051B980785E2807D1607B40F0100002E012
:10514000607B40F008006073082E03D0B6F5C16F95
:1051500013D197E095F8290080060ED56FF00D0168
:10516000204601F0EFFE38B1AFF26C5340F24F52DF
:1051700037A1AFF20C507DE07FE08FE0636865639C
:105180006B20746861742066697273742070627534
:10519000662063616E20686F6C642073747275633F
:1051A00074206574686172705F686472000000004A
:1051B00048310108D22F0108D40E00206172705FBF
:1051C0007461626C655B6172705F6964785D2E7397
:1051D00074617465203E3D204554484152505F53F0
:1051E000544154455F535441424C45006172705FD5
:1051F0007461626C655B695D2E7374617465203DDA
:105200003D2050454E44494E47206F722053544133
:10521000424C4500F80000206E6F207061636B65A2
:10522000742071756575657320616C6C6F7765644A
:10523000210000007120213D204E554C4C00000003
:1052400069706164647220213D204E554C4C000011
:1052500043616E2774206D6F7665206F76657220CE
:1052600068656164657220696E207061636B657446
:10527000000000000BF008FC10E02946204600F07A
:10528000D8FB09E095F82900800607D5224605F1EC
:1052900023012846FFF73DFC002070BD204601F0A9
:1052A00087FCF9E770B50C460025FBF719FD0646AB
:1052B00007E06289701961680BF016FE6089246846
:1052C0000544002CF5D1A8B2FBF7ECFC08B1002096
:1052D00070BD4FF0FF3070BD2DE9FE4381460025C3
:1052E0006846FBF7B7FCDDE901710098884681B29A
:1052F0000322104601F0B1FC06000AD004467919D9
:10530000628960680BF0F0FD608924680544002C18
:10531000F5D14FF00041C8F800103848416909063E
:1053200003D5802141610021816066B1D9F8102048
:10533000494630469047040002D0304601F038FC20
:105340002046BDE8FE834FF0FF30FAE710B50400B9
:1053500005D12BA3742235A137A00BF095FB652056
:1053600084F82A006E2084F82B003E4860613E4895
:10537000A061204600F002F8002010BD70B50621A3
:1053800080F8221039490A7880F823204A7880F87A
:1053900024208A7880F82520CA7880F826200A7987
:1053A00080F82720497980F8281040F2DC510184E8
:1053B000322180F8291000F123010020FEF707F9BF
:1053C0002B482C4D052201682868FEF75AFA2A4816
:1053D0000522016829480068FEF7FEF900244FF411
:1053E00040062868314600EB4410FEF787FA641C3B
:1053F000052CF6DBFEF7AAF8002070BD00900240F5
:105400002E2E5C4C5749505C6C7769702D312E34D0
:105410002E315C7372635C6E657469665C6574687A
:1054200065726E657469662E630000006E6574694E
:1054300066213D4E554C4C00417373657274696F23
:105440006E2022257322206661696C656420617478
:10545000206C696E6520256420696E2025730D0A15
:1054600000000000D54F0008A5520008880E00205B
:1054700030000020280000202C0000202400002004
:105480002DE9FE4F456804468A4628780007870EB6
:1054900079428846204601F055FD00287AD12089BE
:1054A000042877D36068007800287FD008287DD151
:1054B000624901260868C0F303120E2A00D10026B3
:1054C0008946514600F034FC00286FD1002E6DD083
:1054D000208908286AD3204600F038FA002865D1D0
:1054E0002221204601F02EFD002831D039462046E9
:1054F00001F028FD18B152A398225BA147E0218951
:105500000022022001F0A9FB06004FD0718907F1AB
:105510000800814205D24AA3A12260A16DA00BF030
:10552000B3FA2146304601F020FF18B144A3A5226A
:1055300073A12CE041463046756801F003FD10B1BF
:105540003FA3AB220CE0204601F032FB344609E0D9
:105550006FF02101204601F0F5FC18B138A3B52207
:1055600071A114E06068D9F80010E9607B49002659
:105570000968296106704680FF2028726E813946CD
:10558000204601F0DFFC30B12DA3EC2274A151A024
:105590000BF07AFA0AE00121CDE90061FF23002235
:1055A000CDF808A02549204600F0E6FA2046BDE8DF
:1055B000FE4F01F0FDBA2DE9FE4391460E46074627
:1055C00000222421012001F048FB05002DD068892C
:1055D000242806D21AA34FF4A2726AA13DA00BF0B0
:1055E00053FA6C68D7F804801C22267084F8019066
:1055F0000026A680E6806868796808300BF074FCA5
:1056000066806989204600F09BF96080D8F80C001C
:1056100002900120CDE90060FF2302AA0021284664
:1056200000F014FB284601F0C3FABDE8FE830A46E9
:105630000321C0E70A460B21BDE700000C01002052
:105640002E2E5C4C5749505C6C7769702D312E348E
:105650002E315C7372635C636F72655C6970763463
:105660005C69636D702E630069636D705F696E7055
:1056700075743A206D6F76696E6720702D3E70618B
:10568000796C6F616420746F206970206865616453
:105690006572206661696C65640A00006368656311
:1056A0006B2074686174206669727374207062750F
:1056B000662063616E20686F6C642073747275631A
:1056C00074207468652049434D50206865616465A5
:1056D00072000000417373657274696F6E20222539
:1056E0007322206661696C6564206174206C696E48
:1056F0006520256420696E2025730D0A00000000D6
:1057000069636D705F696E7075743A20636F70794C
:10571000696E6720746F206E6577207062756620F1
:105720006661696C65640A0069636D705F696E70BB
:1057300075743A20726573746F72696E67206F7248
:105740006967696E616C20702D3E7061796C6F6164
:1057500064206661696C65640A000000080100202D
:1057600043616E2774206D6F7665206F76657220B9
:1057700068656164657220696E207061636B657431
:1057800000000000636865636B20746861742066C4
:105790006972737420706275662063616E20686F31
:1057A0006C642069636D70206D657373616765005B
:1057B00018B50022ADF8002010F001030BD000292D
:1057C00009DD10F8014B8DF80140491E03E030F867
:1057D000024B891E22440129F9DC002902DD0078F0
:1057E0008DF80000BDF800001044010C11FA80F0A3
:1057F000010C11FA80F023B1C1B2C0F3072040EAD6
:10580000012080B218BD2DE9F047002499461746C3
:10581000884605462646DDF820A013E069896868B9
:10582000FFF7C6FF2044010C11FA80F4A87AC007E4
:1058300007D0C6F10100C6B2E0B2C4F3072141EAC5
:1058400000242D68002DE9D126B1E0B2C4F3072170
:1058500041EA0024D8F8000014FA80F101EB10416D
:10586000386811FA80F101EB1044484600F0A0FFBF
:105870000444504600F09CFF2044010C11FA80F0D3
:10588000010C11FA80F0C04380B2BDE8F0872DE929
:10589000F05F00249B46924689460546A0460B9E33
:1058A00025E06F89B74200D9374639466868FFF767
:1058B0007FFF0444F01B86B247F6FF70864206D392
:1058C00034A34FF4B1723FA141A00BF0DDF8200CDE
:1058D00010FA84F4A87AC00708D0C8F1010000F0DB
:1058E000FF08E0B2C4F3072141EA00242D680DB19E
:1058F000002ED6D1B8F1000F04D0E0B2C4F30721D6
:1059000041EA0024D9F8000014FA80F101EB1041BB
:10591000DAF8000011FA80F101EB1044584600F06B
:1059200047FF04440A9800F043FF2044010C11FA99
:1059300080F0010C11FA80F0C04380B2BDE8F09F06
:1059400010B5FFF735FFC04380B210BD70B500241D
:105950000546264613E069896868FFF729FF204459
:10596000010C11FA80F4A87AC00707D0C6F1010033
:10597000C6B2E0B2C4F3072141EA00242D68002D2D
:10598000E9D126B1E0B2C4F3072141EA0024E043A3
:1059900080B270BD2E2E5C4C5749505C6C7769709C
:1059A0002D312E342E315C7372635C636F72655CD3
:1059B000697076345C696E65745F63686B73756D6E
:1059C0002E63000064656C657465206D65000000E1
:1059D000417373657274696F6E202225732220668D
:1059E00061696C6564206174206C696E6520256452
:1059F00020696E2025730D0A0000000010B50446D2
:105A0000A4480AE090F82910C90706D081682268E6
:105A100043680A400B409A420AD000680028F1D13E
:105A20009D48006818B190F82910C90700D10020DE
:105A300010BD2DE9F05F45680646884628780421A8
:105A4000B1EB101F0FD100F00F004FF6FF7101EA0C
:105A50008004688800F0AEFE01467089A04202D33F
:105A60003089884203D2304601F0A2F84EE0304639
:105A700001F00BFA89482969A0F1040A0160EA687B
:105A8000DFF810B2012744468146CAF8002094F896
:105A90002900C0070BD0201D09D0616839B1D9F8A1
:105AA000000088420ED0214600F042F950B91FB1E3
:105AB0000027DBF8004000E02468444500D124685A
:105AC000002CE4D157464146DAF8000000F030F9E6
:105AD0000028C8D13878BA46C0F303100E28C2D0C7
